:080A28000214000A0212000A88
:0C09F100E4FFFE1209FD75B002E4FFFEF9
:1009FD00EF4E7026FFFEE4FDFCC3ED9513E512648A
:100A0D0080F8EC64809850070DBD00010C80EA0F52
:0A0A1D00BF00010EBE01DFBFF4DCD4
:010A270022AC
:040951008E0E8F0F68
:100955007B017A00D3EB950FE50E6480F8EA64809D
:1009650098503090000075B0011209F175B004E49B
:10097500FFFE1209FD75B008E4FFFE1209FDA3E5AF
:1009850082640B458370DFE5112BF5A00BBB0001DD
:0F0995000A80C1E50F2511F511E50E3510F5109B
:0109A4002230
:0408F0008E0E8F0FCA
:1008F4007B017A00D3EB950FE50E6480F8EA6480FF
:1009040098503C900000D3E5829515E5146480F876
:10091400E583648098501B75B008E4FFFE1209FD5E
:1009240075B0041209F175B001E4FFFE1209FDA3CC
:1009340080D4C3E5119BF5A00BBB00010A80B5C3AD
:0C094400E511950FF511E510950EF5106A
:010950002284
:0409A5008E0A8F0B1C
:1009A900D3E50B9511E5106480F8E50A6480984059
:1009B90012E50B9511F50DE50A9510F50CAF0DFE35
:1009C900120951C3E50B9511E5106480F8E50A6435
:1009D90080985013C3E511950BF50DE510950AF5AF
:0709E9000CAF0DFE1208F037
:0109F00022E4
:10088C00E4F510F5118511A0AF80EF6401700BF544
:10089C00087509017F01FE1209A5AF80EF64027093
:1008AC000BF5087509027F02FE1209A5AF80EF64F3
:1008BC0004700BF5087509037F03FE1209A5AF80C0
:1008CC00EF6408700BF5087509047F04FE1209A586
:1008DC00AF80EF641070B1F5087509057F05FE1245
:0408EC0009A580A436
:03000000020800F3
:0C080000787FE4F6D8FD758115020847EA
:10080C0002088CE493A3F8E493A34003F68001F26E
:10081C0008DFF48029E493A3F85407240CC8C333ED
:10082C00C4540F4420C8834004F456800146F6DFBC
:10083C00E4800B0102040810204080900A28E47E1A
:10084C00019360BCA3FF543F30E509541FFEE493B1
:10085C00A360010ECF54C025E060A840B8E493A378
:10086C00FAE493A3F8E493A3C8C582C8CAC583CAA3
:10087C00F0A3C8C582C8CAC583CADFE9DEE780BE5B
:010A300000C5
:00000001FF
